S01300005552535F50726F6A656B742E73726563D9
S11300000C942A000C943F000C943F000C943F0085
S11300100C943F000C943F000C943F000C943F0060
S11300200C943F000C943F000C943F000C943F0050
S11300300C943F000C943F000C943F000C943F0040
S11300400C943F000C943F000C943F000C943F0030
S11300500C943F0011241FBECFE5D8E0DEBFCDBF16
S113006010E0A0E6B0E0E2E2F2E002C005900D92FA
S1130070AC36B107D9F70E94F5000C940F010C942B
S11300800000979A00C097980895CF93DF93D82FD4
S1130090662311F0959A01C09598969881B38F6064
S11300A081BBC2B3C07F8D2F82958F708C2B82BB96
S11300B00E944100DF70DC2BD2BB0E944100CF6064
S11300C0C2BBDF91CF910895882311F0959A01C0A6
S11300D09598969A81B3807F81BB979A00C090B31C
S11300E0979800C0979A00C020B32F70892F8295EB
S11300F0807F9798822B089580E00E946400882373
S1130100DCF383E090E00197F1F780E00E94640063
S11301100895CF93C82F0E947C0060E08C2F0E942A
S11301204500CF91089581E00E9489000895CF93FE
S1130130C82F0E947C00CA3049F4803410F080E05B
S113014001C080E480580E94890004C061E08C2FC3
S11301500E944500CF910895CF93DF93EC0121963F
S1130160FC018081882329F00E94970089918111E4
S1130170FBCFDF91CF9108951F93CF93DF93182F77
S113018081B38F6081BB8D9A8E9A8F9A80E393E7B7
S11301900197F1F7919A909A0E94410080EF93E2BF
S11301A00197F1F70E944100C5E7D0E0CE01019725
S11301B0F1F70E944100CE010197F1F790980E9457
S11301C041002197F1F788E20E94890088E00E94AB
S11301D089000E94930086E00E948900812F0E947A
S11301E08900DF91CF911F91089580E181BB80EF59
S11301F084BB8FE085BB81E28FBD8AE08EBD80E841
S113020090E099BD88BD8CE00E94BC000E949300E0
S113021080E690E00E94AC0080E090E00895F894BD
S1050220FFCF0A
S10F022248656C6C6F20576F726C6400B0
S9030000FC
