:100000000C942A000C948E020C94FD020C94470070
:100010000C9447000C9447000C9447000C94470044
:100020000C9447000C9447000C9447000C94470034
:100030000C9447000C9447000C9447000C94470024
:100040000C9447000C9447000C9447000C94470014
:100050000C94470011241FBECFE5D8E0DEBFCDBF12
:1000600011E0A0E6B0E0E8EBFDE002C005900D92E3
:10007000A030B107D9F721E0A0E0B1E001C01D92A6
:10008000A630B207E1F70E9423030C94DA060C9421
:100090000000CF93DF93CDB7DEB760970FB6F8942B
:1000A000DEBF0FBECDBF4AE0BE016F5F7F4F0E9433
:1000B000BB030E941B02CE0101960E94380260968B
:1000C0000FB6F894DEBF0FBECDBFDF91CF9108957C
:1000D000EF92FF920F931F93CF93DF930E941B0227
:1000E00080E690E00E9438022FEF8FE790E72150E2
:1000F00080409040E1F700C0000080E487B986E8C6
:1001000086B90E941B028CE690E00E9438022FEF15
:100110008FEF90EE215080409040E1F700C000004A
:10012000C4E6D0E000E010E0369A349BFECF84B104
:1001300095B10817190710F404B115B184B195B140
:100140000E9449002FEF8FE392E0215080409040C1
:10015000E1F700C00000219739F70E941B028BE7EE
:1001600090E00E9438022FEF8FEF90EE21508040F8
:100170009040E1F700C00000C4E6D0E0E12CF12C93
:10018000369A349BFECF84B195B1E816F90610F487
:10019000E4B0F5B084B195B10E9449002FEF8FE330
:1001A00092E0215080409040E1F700C0000021978C
:1001B00039F70E941B02E016F10638F48AE890E055
:1001C0000E943802C1E0D0E010C00E151F0538F4BF
:1001D00087E990E00E943802CFEFDFEF06C084EAA3
:1001E00090E00E943802C0E0D0E02FEF8FEF9CE259
:1001F000215080409040E1F700C000000E941B02A7
:100200008EEA90E00E94380216B8CE01DF91CF91BD
:100210001F910F91FF90EF900895EF92FF920F932F
:100220001F93CF93DF930E941B028AEB90E00E9402
:1002300038022FEF8FE790E7215080409040E1F7A0
:1002400000C000000E941B028CE690E00E94380271
:100250002FEF8FE790E7215080409040E1F700C0FA
:100260000000C0E0D0E0E12CF12CB79903C02FEFE3
:10027000E21AF20A0E941B022196C03D87E0D807CD
:10028000A1F79FEF2FE783E4915020408040E1F7F2
:1002900000C000000E941B028BE790E00E94380221
:1002A0009FEF2FE780E7915020408040E1F700C0AA
:1002B0000000C0E0D0E000E010E0B79902C00F5F9E
:1002C0001F4F0E941B022196C03D97E0D907A9F756
:1002D0002FEF8FE793E4215080409040E1F700C07A
:1002E00000000E151F0538F48AE890E00E943802DD
:1002F000C1E0D0E010C0E016F10638F487E990E0E4
:100300000E943802CFEFDFEF06C084EA90E00E943F
:100310003802C0E0D0E02FEF8FEF9CE22150804008
:100320009040E1F700C000000E941B028EEA90E0BE
:100330000E943802CE01DF91CF911F910F91FF9063
:10034000EF900895979A00C097980895CF93C82F7B
:10035000662311F0959A01C095989698D49AD59AEB
:10036000D69AD79ADF98DE98DD98DC98CC230CF4E7
:10037000DF9AC6FDDE9AC5FDDD9AC4FDDC9A0E94B7
:10038000A201DF98DE98DD98DC98C3FDDF9AC2FDFC
:10039000DE9AC1FDDD9AC0FDDC9A0E94A201DC9AC2
:1003A000DD9ADE9ADF9ACF910895882311F0959A0D
:1003B00001C09598969AD498D598D698D798979A38
:1003C00000C0CC9B02C080E101C080E0CD9980627A
:1003D000CE998064CF998068979800C0979A00C0A2
:1003E000CC998160CD998260CE998460CF998860E4
:1003F0009798089580E00E94D5018823DCF383E07C
:1004000090E00197F1F780E00E94D5010895CF9325
:10041000C82F0E94FA0160E08C2F0E94A601CF91A4
:100420000895611104C080580E9407020895805405
:100430000E940702089581E00E940702089582E069
:100440000E9407020895CF93C82F0E94FA01CA3074
:1004500049F4803410F080E001C080E480580E94AC
:10046000070204C061E08C2F0E94A601CF9108957D
:10047000CF93DF93EC012196FC018081882329F042
:100480000E94230289918111FBCFDF91CF910895C2
:100490001F93CF93DF93182F8D9A8E9A8F9AD49AA9
:1004A000D59AD69AD79A80E393E70197F1F7DD9A28
:1004B000DC9A0E94A20180EF93E20197F1F70E947B
:1004C000A201C5E7D0E0CE010197F1F70E94A20199
:1004D000CE010197F1F7DC980E94A2012197F1F774
:1004E00088E20E94070288E00E9407020E941B0225
:1004F00086E00E940702812F0E940702DF91CF91C0
:100500001F9108952FEF8FE392E02150804090409B
:10051000E1F700C0000080EC8ABF08951F920F929F
:100520000FB60F921124EF92FF920F931F932F9308
:100530003F934F935F936F937F938F939F93AF936B
:10054000BF93EF93FF93CF93DF9300D000D0CDB74D
:10055000DEB70E941B0285EC90E00E943802809179
:1005600001011F928F9300ED10E01F930F93CE01B6
:1005700001967C019F938F930E94E003C7010E9424
:10058000380261E080E00E94110283ED90E00E9459
:100590003802809100011F928F931F930F938E0159
:1005A0000D5F1F4F1F930F930E94E003C8010E942D
:1005B00038020E941F020E9482020FB6F894DEBF2A
:1005C0000FBECDBF0F900F900F900F90DF91CF9186
:1005D000FF91EF91BF91AF919F918F917F916F911B
:1005E0005F914F913F912F911F910F91FF90EF904D
:1005F0000F900FBE0F901F9018951F920F920FB67D
:100600000F9211242F933F934F935F936F937F9398
:100610008F939F93AF93BF93EF93FF930C94230318
:100620000E948202FF91EF91BF91AF919F918F91B4
:100630007F916F915F914F913F912F910F900FBEDE
:100640000F901F90189517BA8FE088BB80E181BB8F
:1006500081E28FBD8AE08EBD20E830E039BD28BD43
:1006600085BF80EC8BBF78948CE00E9448020E948A
:100670001B028EEA90E00E943802B09921C00E94CD
:10068000680090930501809304012091020130914C
:100690000301280F391F309303012093020118161C
:1006A000190634F4809101018F5F80930101E5CF39
:1006B00099231CF7809100018F5F80930001DDCFAB
:1006C000B19922C00E940D0190930501809304010D
:1006D0002091020130910301280F391F309303014B
:1006E000209302011816190634F4809101018F5FDE
:1006F00080930101C2CF99230CF0BFCF80910001FC
:100700008F5F80930001B9CFB299B7CF0E941B02CF
:100710008091020190910301181619062CF48EEDB8
:1007200090E00E9438020BC0892B29F48CEE90E0F7
:100730000E94380204C081EF90E00E9438021092BB
:10074000030110920201109205011092040110920F
:100750000101109200012FEF8FE796E121508040B8
:100760009040E1F700C000000E941B028EEA90E07A
:100770000E94380282CFBB274A3031F4992322F4F9
:10078000BDE2909581959F4F0C94C703BB27FB0159
:100790005527AA27880F991FAA1FA41710F0A41B7A
:1007A00083955051B9F7A05DAA3308F0A95DA193D4
:1007B000009779F7B111B1931192CB010C94F9051F
:1007C000AEE0B0E0E6EEF3E00C94B1060D891E89D0
:1007D00086E08C831A8309838FEF9FE79E838D8346
:1007E000AE01475E5F4F6F89788DCE0101960E9402
:1007F0000204EF81F885E00FF11F10822E96E4E0ED
:100800000C94CD06ABE0B0E0E8E0F4E00C94A30675
:100810006C017B018A01FC0117821682838181FFB2
:10082000CCC1CE0101963C01F6019381F70193FD05
:10083000859193FF81917F01882309F4BAC18532A4
:1008400039F493FD859193FF81917F01853229F4DD
:10085000B60190E00E940906E7CF912C212C312CA3
:10086000FFE1F315D8F08B3279F038F4803279F06B
:100870008332A1F4232D20611DC08D3261F08033BD
:1008800069F4232D216016C0832D8260382EE32D5C
:10089000E4603E2E2AC0F32DF8601DC037FC2DC049
:1008A00020ED280F2A3040F08E32B9F436FC81C199
:1008B000232D2064322E19C036FE06C08AE0989E91
:1008C000200D1124922E11C0EAE02E9E200D11243D
:1008D000222EF32DF0623F2E08C08C3621F4832D9A
:1008E0008068382E02C0883641F4F70193FD859167
:1008F00093FF81917F018111B3CF982F9F7D9554F4
:10090000933028F40C5F1F4F9FE399830DC083360B
:1009100031F0833771F0833509F059C021C0F801F7
:10092000808189830E5F1F4F88248394912C53010B
:1009300013C02801F2E04F0E511CF801A080B180D5
:1009400036FE03C0692D70E002C06FEF7FEFC50176
:100950000E94EE054C018201F32DFF773F2E16C059
:10096000280122E0420E511CF801A080B18036FE21
:1009700003C0692D70E002C06FEF7FEFC5010E94D8
:10098000E3054C01F32DF0683F2E820133FC1BC0C0
:10099000822D90E088169906B0F4B60180E290E0CE
:1009A0000E9409062A94F4CFF50137FC859137FEA1
:1009B00081915F01B60190E00E94090621102A94FE
:1009C00021E0821A91088114910471F7E8C08436FD
:1009D00011F0893641F5F80137FE07C06081718159
:1009E000828193810C5F1F4F08C060817181072E47
:1009F000000C880B990B0E5F1F4FF32DFF763F2ED7
:100A000097FF09C090958095709561957F4F8F4FA6
:100A10009F4FF0683F2E2AE030E0A3010E94450678
:100A2000882E861845C0853731F4232D2F7EB22EAF
:100A30002AE030E025C0932D997FB92E8F36C1F082
:100A400018F4883579F0B5C0803719F0883721F06F
:100A5000B0C0E92FE061BE2EB4FE0DC0FB2DF460E6
:100A6000BF2E09C034FE0AC0292F2660B22E06C050
:100A700028E030E005C020E130E002C020E132E0B3
:100A8000F801B7FE07C060817181828193810C5F9C
:100A90001F4F06C06081718180E090E00E5F1F4FA4
:100AA000A3010E944506882E8618FB2DFF773F2E56
:100AB00036FE0DC0232D2E7FA22E891458F434FE4D
:100AC0000BC032FC09C0832D8E7EA82E05C0B82C29
:100AD000A32C03C0B82C01C0B92CA4FE0FC0FE018A
:100AE000E80DF11D8081803321F49A2D997EA92E85
:100AF00009C0A2FE06C0B394B39404C08A2D8678C0
:100B000009F0B394A3FC11C0A0FE06C0B21488F48F
:100B1000280C922C9B180EC0B21460F4B60180E22F
:100B200090E00E940906B394F7CFB21418F42B1882
:100B300002C0982C212CA4FE10C0B60180E390E0E6
:100B40000E940906A2FE17C0A1FC03C088E790E03E
:100B500002C088E590E0B6010CC08A2D867859F075
:100B6000A1FE02C08BE201C080E2A7FC8DE2B601CB
:100B700090E00E940906891438F4B60180E390E001
:100B80000E9409069A94F7CF8A94F301E80DF11DAB
:100B90008081B60190E00E9409068110F5CF2220E5
:100BA00009F442CEB60180E290E00E9409062A9440
:100BB000F6CFF6018681978102C08FEF9FEF2B96CB
:100BC000E2E10C94BF06FC010590615070400110F9
:100BD000D8F7809590958E0F9F1F0895FC01615066
:100BE000704001900110D8F7809590958E0F9F1F4F
:100BF0000895DC01FC01672F71917723E1F73297AB
:100C000004C07C916D9370836291AE17BF07C8F3E7
:100C100008950F931F93CF93DF93FB01238121FD51
:100C200003C08FEF9FEF2CC022FF16C04681578173
:100C3000248135814217530744F4A081B1819D017D
:100C40002F5F3F4F318320838C93268137812F5F25
:100C50003F4F3783268314C08B01EC01FB010084D6
:100C6000F185E02D0995892BE1F6D80116968D9135
:100C70009C911797019617969C938E931697CE0189
:100C8000DF91CF911F910F910895FA01AA27283083
:100C900051F1203181F1E8946F936E7F6E5F7F4F49
:100CA0008F4F9F4FAF4FB1E03ED0B4E03CD0670FC5
:100CB000781F891F9A1FA11D680F791F8A1F911D18
:100CC000A11D6A0F711D811D911DA11D20D009F468
:100CD00068943F912AE0269F11243019305D3193AA
:100CE000DEF6CF010895462F4770405D4193B3E093
:100CF0000FD0C9F7F6CF462F4F70405D4A3318F03A
:100D0000495D31FD4052419302D0A9F7EACFB4E0EA
:100D1000A6959795879577956795BA95C9F70097A2
:100D20006105710508959B01AC010A2E0694579543
:100D3000479537952795BA95C9F7620F731F841F9A
:100D4000951FA01D08952F923F924F925F926F9230
:100D50007F928F929F92AF92BF92CF92DF92EF924B
:100D6000FF920F931F93CF93DF93CDB7DEB7CA1BCC
:100D7000DB0B0FB6F894DEBF0FBECDBF09942A88F7
:100D8000398848885F846E847D848C849B84AA849F
:100D9000B984C884DF80EE80FD800C811B81AA812C
:100DA000B981CE0FD11D0FB6F894DEBF0FBECDBFF7
:080DB000ED010895F894FFCF56
:100DB8004D7573636C65205465737400506C61796C
:100DC8006572203120526561647900506C617965E3
:100DD80072203220526561647900506F696E742008
:100DE800666F7220503100506F696E7420666F72A2
:100DF800205032004E6F20706F696E747300436824
:100E08006F6F73652067616D6500536F756E642041
:100E18005465737400506C6179657220313A200012
:100E2800256400506C6179657220323A2000506C5C
:100E38006179657220312077696E73004472617739
:100E480000506C6179657220322077696E730000FA
:00000001FF
