:100000000C942A000C943F000C943F000C943F0089
:100010000C943F000C943F000C943F000C943F0064
:100020000C943F000C943F000C943F000C943F0054
:100030000C943F000C943F000C943F000C943F0044
:100040000C943F000C943F000C943F000C943F0034
:100050000C943F0011241FBECFE5D8E0DEBFCDBF1A
:1000600010E0A0E6B0E0E6E6F4E002C005900D92F4
:10007000AE3CB107D9F70E94BB010C9431020C943D
:100080000000CF93DF93CDB7DEB760970FB6F8943B
:10009000DEBF0FBECDBF4AE0BE016F5F7F4F0E9443
:1000A000FC010E945901CE0101960E9472016096E6
:1000B0000FB6F894DEBF0FBECDBFDF91CF9108958C
:1000C000EF92FF920F931F93CF93DF930E945901FA
:1000D00080E690E00E9472012FEF8FE790E72150B9
:1000E00080409040E1F700C0000080E487B986E8D6
:1000F00086B90E9459018CE690E00E9472012FEFB0
:100100008FEF90EE215080409040E1F700C000005A
:10011000C4E6D0E000E010E0369A349BFECF84B114
:1001200095B10817190710F404B115B184B195B150
:100130000E9441002FEF8FE392E0215080409040D9
:10014000E1F700C00000219739F70E9459018BE7C1
:1001500090E00E9472012FEF8FEF90EE21508040CF
:100160009040E1F700C00000C4E6D0E0E12CF12CA3
:10017000369A349BFECF84B195B1E816F90610F497
:10018000E4B0F5B084B195B10E9441002FEF8FE348
:1001900092E0215080409040E1F700C0000021979C
:1001A00039F70E945901E016F10638F48AE890E028
:1001B0000E947201C1E0D0E010C00E151F0538F496
:1001C00087E990E00E947201CFEFDFEF06C084EA7A
:1001D00090E00E947201C0E0D0E02FEF8FEF9CE230
:1001E000215080409040E1F700C000000E9459017A
:1001F0008EEA90E00E947201CE01DF91CF911F91B3
:100200000F91FF90EF90089580E090E00895979A05
:1002100000C097980895CF93DF93D82F662311F0ED
:10022000959A01C09598969881B38F6081BBC2B3AF
:10023000C07F8D2F82958F708C2B82BB0E9407010F
:10024000DF70DC2BD2BB0E940701CF60C2BBDF9105
:10025000CF910895882311F0959A01C09598969AA8
:1002600081B3807F81BB979A00C090B3979800C0FC
:10027000979A00C020B32F70892F8295807F97981E
:10028000822B089580E00E942A018823DCF383E01A
:1002900090E00197F1F780E00E942A010895CF9342
:1002A000C82F0E94420160E08C2F0E940B01CF9169
:1002B000089581E00E944F010895CF93C82F0E94B6
:1002C0004201CA3049F4803410F080E001C080E47B
:1002D00080580E944F0104C061E08C2F0E940B01E6
:1002E000CF910895CF93DF93EC012196FC0180819B
:1002F000882329F00E945D0189918111FBCFDF9154
:10030000CF9108951F93CF93DF93182F81B38F6000
:1003100081BB8D9A8E9A8F9A80E393E70197F1F7CC
:10032000919A909A0E94070180EF93E20197F1F76A
:100330000E940701C5E7D0E0CE010197F1F70E94C6
:100340000701CE010197F1F790980E9407012197CC
:10035000F1F788E20E944F0188E00E944F010E945D
:10036000590186E00E944F01812F0E944F01DF91C9
:10037000CF911F91089517BA8FE088BB80E181BBB0
:1003800081E28FBD8AE08EBD80E890E099BD88BD96
:100390008CE00E9482010E9459018EEA90E00E9446
:1003A0007201C0E0D0E0B09905C00E946000C80FA3
:1003B000D91FF9CFB19905C00E940401C80FD91FF8
:1003C000F2CFB299F0CF0E945901CD2B29F08AEBE0
:1003D00090E00E94720104C088EC90E00E947201DB
:1003E0002FEF8FE796E1215080409040E1F700C069
:1003F0000000C0E0D0E0D7CFBB274A3031F49923CA
:1004000022F4BDE2909581959F4F0C940802BB2782
:10041000FB015527AA27880F991FAA1FA41710F0C0
:10042000A41B83955051B9F7A05DAA3308F0A95DCC
:10043000A193009779F7B111B1931192CB010C946C
:100440002102DC01FC01672F71917723E1F73297DC
:1004500004C07C916D9370836291AE17BF07C8F39F
:060460000895F894FFCF9F
:100466004D7573636C65205465737400506C6179C7
:100476006572203120526561647900506C6179653E
:1004860072203220526561647900506F696E742063
:10049600666F7220503100506F696E7420666F72FD
:1004A600205032004E6F20706F696E74730043687F
:1004B6006F6F73652067616D6500506C6179657259
:0E04C60020312077696E730044726177000068
:00000001FF
