S01300005552535F50726F6A656B742E73726563D9
S11300000C942A000C943F000C943F000C943F0085
S11300100C943F000C943F000C943F000C943F0060
S11300200C943F000C943F000C943F000C943F0050
S11300300C943F000C943F000C943F000C943F0040
S11300400C943F000C943F000C943F000C943F0030
S11300500C943F0011241FBECFE5D8E0DEBFCDBF16
S113006010E0A0E6B0E0E8EAF5E002C005900D92E9
S1130070A63EB107D9F70E944E020C94D2020C940A
S11300800000CF93DF93CDB7DEB760970FB6F89437
S1130090DEBF0FBECDBF4AE0BE016F5F7F4F0E943F
S11300A09D020E94EC01CE0101960E940502609619
S11300B00FB6F894DEBF0FBECDBFDF91CF91089588
S11300C0EF92FF920F931F93CF93DF930E94EC0163
S11300D080E690E00E9405022FEF8FE790E7215021
S11300E080409040E1F700C0000080E487B986E8D2
S11300F086B90E94EC018CE690E00E9405022FEF85
S11301008FEF90EE215080409040E1F700C0000056
S1130110C4E6D0E000E010E0369A349BFECF84B110
S113012095B10817190710F404B115B184B195B14C
S11301300E9441002FEF8FE392E0215080409040D5
S1130140E1F700C00000219739F70E94EC018BE72A
S113015090E00E9405022FEF8FEF90EE2150804037
S11301609040E1F700C00000C4E6D0E0E12CF12C9F
S1130170369A349BFECF84B195B1E816F90610F493
S1130180E4B0F5B084B195B10E9441002FEF8FE344
S113019092E0215080409040E1F700C00000219798
S11301A039F70E94EC01E016F10638F48AE890E091
S11301B00E940502C1E0D0E010C00E151F0538F4FE
S11301C087E990E00E940502CFEFDFEF06C084EAE2
S11301D090E00E940502C0E0D0E02FEF8FEF9CE298
S11301E0215080409040E1F700C000000E94EC01E3
S11301F08EEA90E00E94050216B8CE01DF91CF91FD
S11302001F910F91FF90EF900895EF92FF920F933B
S11302101F93CF93DF930E94EC018AEB90E00E943E
S113022005022FEF8FE790E7215080409040E1F7DF
S113023000C000000E94EC018CE690E00E940502E0
S11302402FEF8FE790E7215080409040E1F700C006
S11302500000C0E0D0E0E12CF12CB79903C02FEFEF
S1130260E21AF20A0E94EC012196C03D87E0D80709
S1130270A1F79FEF2FE783E4915020408040E1F7FE
S113028000C000000E94EC018BE790E00E94050290
S11302909FEF2FE780E7915020408040E1F700C0B6
S11302A00000C0E0D0E000E010E0B79902C00F5FAA
S11302B01F4F0E94EC012196C03D97E0D907A9F792
S11302C02FEF8FE793E4215080409040E1F700C086
S11302D000000E151F0538F48AE890E00E9405021C
S11302E0C1E0D0E010C0E016F10638F487E990E0F0
S11302F00E940502CFEFDFEF06C084EA90E00E947F
S11303000502C0E0D0E02FEF8FEF9CE22150804047
S11303109040E1F700C000000E94EC018EEA90E0FA
S11303200E940502CE01DF91CF911F910F91FF90A2
S1130330EF900895979A00C097980895CF93DF930C
S1130340D82F662311F0959A01C09598969881B399
S11303508F6081BBC2B3C07F8D2F82958F708C2B31
S113036082BB0E949A01DF70DC2BD2BB0E949A01EF
S1130370CF60C2BBDF91CF910895882311F0959A85
S113038001C09598969A81B3807F81BB979A00C0EB
S113039090B3979800C0979A00C020B32F70892F0C
S11303A08295807F9798822B089580E00E94BD01FA
S11303B08823DCF383E090E00197F1F780E00E946A
S11303C0BD010895CF93C82F0E94D50160E08C2F02
S11303D00E949E01CF91089581E00E94E201089558
S11303E0CF93C82F0E94D501CA3049F4803410F04D
S11303F080E001C080E480580E94E20104C061E012
S11304008C2F0E949E01CF910895CF93DF93EC012E
S11304102196FC018081882329F00E94F0018991B2
S11304208111FBCFDF91CF9108951F93CF93DF9379
S1130430182F81B38F6081BB8D9A8E9A8F9A80E337
S113044093E70197F1F7919A909A0E949A0180EFAD
S113045093E20197F1F70E949A01C5E7D0E0CE013B
S11304600197F1F70E949A01CE010197F1F7909854
S11304700E949A012197F1F788E20E94E20188E044
S11304800E94E2010E94EC0186E00E94E201812FB9
S11304900E94E201DF91CF911F91089517BA8FE076
S11304A088BB80E181BB81E28FBD8AE08EBD80E89C
S11304B090E099BD88BD8CE00E9415020E94EC0179
S11304C08EEA90E00E940502C0E0D0E0B09905C039
S11304D00E946000C80FD91FF9CFB19905C00E94CE
S11304E00501C80FD91FF2CFB299F0CF0E94EC01D9
S11304F01C161D062CF485EC90E00E9405020BC02E
S1130500CD2B29F483ED90E00E94050204C088ED10
S113051090E00E9405022FEF8FE796E12150804082
S11305209040E1F700C000000E94EC018EEA90E0E8
S11305300E940502C0E0D0E0C9CFBB274A3031F4A5
S1130540992322F4BDE2909581959F4F0C94A902C2
S1130550BB27FB015527AA27880F991FAA1FA41799
S113056010F0A41B83955051B9F7A05DAA3308F08D
S1130570A95DA193009779F7B111B1931192CB01C1
S11305800C94C202DC01FC01672F71917723E1F71F
S1130590329704C07C916D9370836291AE17BF074C
S10B05A0C8F30895F894FFCF9D
S11305A84D7573636C65205465737400506C617980
S11305B86572203120526561647900506C617965F7
S11305C872203220526561647900506F696E74201C
S11305D8666F7220503100506F696E7420666F72B6
S11305E8205032004E6F20706F696E747300436838
S11305F86F6F73652067616D6500536F756E642056
S11306085465737400506C61796572203120776980
S11306186E73004472617700506C617965722032A0
S10906282077696E7300E7
S9030000FC
